:020000040800F2
:10000000380B0020190200081D0300081F03000818
:1000100023030008270300082B030008000000004A
:100020000000000000000000000000002F03000896
:100030003103000800000000330300083503000806
:1000400033020008330200083302000833020008BC
:1000500033020008330200083302000833020008AC
:100060001D2A0008B52A00083302000833020008E0
:10007000330200083302000833020008330200088C
:10008000330200083302000833020008330200087C
:10009000330200083302000833020008330200086C
:1000A000330200083302000833020008330200085C
:1000B0003302000847030008330200083302000837
:1000C000330200083302000833020008330200083C
:1000D000330200083302000833020008330200082C
:1000E000330200083302000833020008330200081C
:1000F000330200083302000833020008330200080C
:1001000033020008330200083302000833020008FB
:1001100033020008330200083302000833020008EB
:1001200033020008330200083302000833020008DB
:1001300000F002F800F061F80AA090E8000C824498
:100140008344AAF10107DA4501D100F056F8AFF275
:10015000090EBAE80F0013F0010F18BFFB1A43F0A5
:100160000103184708650000286500000A444FF0A5
:10017000000C10F8013B13F0070408BF10F8014B06
:100180001D1108BF10F8015B641E05D010F8016B4B
:10019000641E01F8016BF9D113F0080F1EBF10F8AF
:1001A000014BAD1C0C1B09D16D1E58BF01F801CBD2
:1001B000FAD505E014F8016B01F8016B6D1EF9D555
:1001C0009142D6D37047000000230024002500266A
:1001D000103A28BF78C1FBD8520728BF30C148BFAA
:1001E0000B607047642905F02387002070471FB516
:1001F00006F0E8F81FBD10B510BD06F0A2F81146D4
:10020000FFF7F5FF00F028F806F0C0F803B4FFF799
:10021000F2FF03BC06F0C8F80948804709480047C8
:10022000FEE7FEE7FEE7FEE7FEE7FEE7FEE7FEE7A6
:10023000FEE7FEE704480549054A064B7047000003
:10024000530400083101000838050020380B002055
:10025000380700203807002088B000200190029065
:100260000390049000F0D0F80023012219461846AC
:1002700003F034FA35E00AE005A9254803F00EFA48
:100280009DF814100020DDE9062303F039FA204818
:1002900003F0FAF90028EFD01E4902980968081AFD
:1002A000C82806DD1B480068029003F051FC03F0EB
:1002B0003BFE184901980968081A642806DD1548AC
:1002C0000068019003F00CF903F052F9114903980A
:1002D0000968081A322804DD0E480068039005F00A
:1002E00032FEC8E70C49086000BF0B4909680029C5
:1002F000FBD170470848006820B107480068401EDD
:100300000549086003480068401C024908607047BE
:10031000540400200400002000000020704700BFAB
:10032000FEE700BFFEE700BFFEE700BFFEE7704745
:100330007047704710B5FFF7DDFF0748007808B138
:1003400002F033FD10BD10B50121044802F0B0F8F1
:1003500005F05AFD10BD00004000002000040040E0
:1003600070B500F079FE002000F096FE102000F03D
:10037000FFF9022000F0E8F9002000F00EFF4FF432
:10038000E011002000F0ECFE012000F0F5FE00BFBF
:10039000392000F0A4FE0028FAD0022000F0EFFE81
:1003A00000BF00F0F5FE0828FBD100F079F82448E2
:1003B00000684FF47A72B0FBF2F1B1F1807F01D3A3
:1003C00001201DE021F07F40401E4FF0E0225061EF
:1003D00050170F22002807DA13071D0E194B00F0E3
:1003E0000F04241F1D5503E013071C0E164B1C544D
:1003F00000BF00204FF0E022906107201061002034
:1004000008B100BFFEE770BD10B500F07DFA30B94D
:1004100000F0B9F9012000F0A2FB00F0C0F9FFF7ED
:100420009FFF02F0B7FA02F061FC0221102002F0F7
:1004300007F902F0AEFD054803F0F8F810BD000022
:100440000800002018ED00E000E400E05404002063
:10045000704710B53648006840F001003449086024
:1004600008464068334908403149486008460068FA
:10047000314908402E4908600846006820F4802071
:1004800008600846406820F4FE0048604FF41F00F2
:100490008860FFF7DDFF4FF000602849086010BD5D
:1004A00010B5002100200022214B5B6803F00C01F5
:1004B00021B1042906D0082928D107E0204B214C7E
:1004C000236027E01E4B1F4C236023E0184B5B6822
:1004D00003F47010164B5B6803F48032022303EBC5
:1004E000904022B9184B4343164C23600DE0104B4B
:1004F0005B6813F4003F04D0134B4343114C23605B
:1005000003E00F4B43430F4C236003E00C4B0D4CB7
:10051000236000BF00BF064B5B68C3F303130B4CA3
:10052000E15C084B1B68CB40064C236010BD00000B
:10053000001002400000FFF8FFFFF6FE08ED00E0AB
:1005400000127A000800002000093D000C00002085
:1005500031490143314A1160704770B500210023D1
:100560000F22C4780CB32D4C246804F4E064C4F565
:10057000E064210AC1F10403CA40447804FA03F19B
:100580008478144021430901254C0678A15504784C
:1005900004F01F050124AC4005786D114FF0E026F2
:1005A00006EB8505C5F8004109E0047804F01F0555
:1005B0000124AC401B4D0678761145F8264070BDED
:1005C000194A0A400243154B1B1F1A60704739B184
:1005D000124A121D12680243104B1B1D1A6006E0DE
:1005E0000E4A121D126882430C4B1B1D1A60704785
:1005F000042808D14FF0E021096941F004014FF0CF
:10060000E022116107E04FF0E021096921F00401C7
:100610004FF0E022116170470000FA050CED00E098
:1006200000E400E080E100E080FFFF1F002044497B
:100630000860091D0860091D0860091D086041481F
:100640003F4914310860704700213D498279002AF2
:100650003AD00A46126803689A430B461A600A1D8C
:10066000126803689A430B1D1A60027911440A68E4
:1006700003681A430A60324A0832126803689A43D0
:100680002F4B08331A601A1D126803689A432C4BCB
:100690000C331A604279102A0ED11A1F12680368AF
:1006A0001A43274B08331A601A1D126803681A434D
:1006B000234B0C331A600DE02149427911440A683A
:1006C00003681A430A6005E0027911440A68036866
:1006D0009A430A6070470021016001710C21417149
:1006E0000021817170471649103109680143144A8D
:1006F00010321160704701460020114A143212680E
:100700000A4201D0012000E0002070470C4914315A
:1007100008607047014600200022094B1B6803EA6D
:100720000102074B14331B680B4202D00AB10120AF
:1007300000E0002070470249143108607047000053
:1007400000040140FFFF0F0001460020FE4A106830
:1007500000F03800084310607047FB49096821F039
:100760000801F94A11601146096801431160704798
:10077000F549096821F01001F34A11601146096832
:10078000014311607047F148EF494860F048486004
:100790007047EE48EC494860ED4848607047EA48C9
:1007A000006940F08000E84908617047E648006948
:1007B00040F08000E449086170470420E249C968BC
:1007C00001F00101012901D101200EE0DE49C968D3
:1007D00011F0040F01D0022007E0DB49C96811F0D5
:1007E000100F01D0032000E00420704700B502463E
:1007F0000423FFF7E2FF034603E0FFF7DEFF0346B3
:10080000521E012B01D1002AF7D102B90523184647
:1008100000BD30B5044604254FF43020FFF7E6FF55
:100820000546042D17D1C848006940F00200C649AA
:10083000086108464461006940F0400008614FF4D7
:100840003020FFF7D3FF0546BF48006941F6FD7130
:100850000840BD490861284630BD10B504244FF456
:100860003020FFF7C3FF0446042C16D1B6480069B8
:1008700040F00400B44908610846006940F04000B7
:1008800008614FF43020FFF7B1FF0446AE4800691D
:1008900041F6FB710840AC490861204610BD00B527
:1008A00002460423FFF789FF034603E0FFF785FFB5
:1008B0000346521E012B01D1002AF7D102B90523AC
:1008C000184600BD10B504244FF43020FFF7E7FFB1
:1008D0000446042C16D19C48006940F004009A4953
:1008E00008610846006940F0400008614FF430207C
:1008F000FFF7D5FF04469448006941F6FB710840B4
:1009000091490861204610BD00208F49C96911F046
:10091000020F01D0012000E00020704730B5A5256E
:100920000424FFF7F1FF00B100254FF43020FFF75A
:100930005DFF0446042C3AD184488349886084488A
:1009400088600846006940F0200008610846006998
:1009500040F0400008614FF43020FFF747FF0446A5
:10096000042C1BD17848006941F6DF7108407649B4
:1009700008610846006940F010000861754805806C
:10098000E002FFF733FF0446052C10D06E480069E3
:1009900041F6EF7108406C49086108E0052C06D06B
:1009A0006948006941F6EF710840674908612046CF
:1009B00030BDF0B504460D4604260027F002FFF7CF
:1009C00015FF0646042E22D15F48006940F0010061
:1009D0005D4908612580F002FFF708FF0646042EF6
:1009E0000ED1A71C280C3880F002FFF7FFFE064648
:1009F0005548006941F6FE7108405349086106E018
:100A00005148006941F6FE7108404F49086130467F
:100A1000F0BD70B504460D460426F002FFF7E6FE71
:100A20000646042E11D14848006940F001004649AD
:100A300008612580F002FFF7D9FE064642480069AA
:100A400041F6FE71084040490861304670BD70B5FE
:100A500005460E460424E002FFF7C8FE0446042CB7
:100A600017D13A4838498860394888600846006993
:100A700040F0100008612E80E002FFF7B7FE044648
:100A8000052C06D03048006941F6EF7108402E4928
:100A90000861204670BD2DE9F04304464FF6FF760D
:100AA0003746B046B1460425E443E6B2C4F307270F
:100AB000C4F307484FEA1469E802FFF797FE0546BA
:100AC000042D40D12148204988602148886008468B
:100AD000006940F010000861FF2E06D01D48083064
:100AE0000680E802FFF782FE0546042D08D1FF2F9D
:100AF00006D018480A300780E802FFF777FE05465F
:100B0000042D0AD1B8F1FF0F07D012480C30A0F81D
:100B10000080E802FFF76AFE0546042D0AD1B9F10C
:100B2000FF0F07D00B480E30A0F80090E802FFF747
:100B30005DFE0546052D06D00348006941F6EF71BC
:100B400008400149086107E0002002402301674591
:100B5000AB89EFCD00F8FF1F2846BDE8F08330B524
:100B6000054604244FF43020FFF740FE0446042CD1
:100B700041D15F485F4988605F48886008460069E6
:100B800040F0200008610846006940F0400008611C
:100B90004FF43020FFF72AFE0446042C22D155489A
:100BA000006941F6DF710840524908610846006952
:100BB00040F0100008611DB100205049088002E09B
:100BC000A5204E4908804FF43020FFF70FFE044661
:100BD000052C10D04748006941F6EF71084045499F
:100BE000086108E0052C06D04248006941F6DF7133
:100BF000084040490861204630BDF0B505460E4624
:100C0000174604243A483B4988603B488860E00224
:100C1000FFF7ECFD0446042C19D13648006940F07A
:100C200010003449086147F0F80030432843334945
:100C3000891C0880E002FFF7D9FD0446052C06D088
:100C40002C48006941F6EF7108402A4908612046A6
:100C5000F0BD2848C069800870472648006A704780
:100C600000202449096811F0200F01D0012000E084
:100C70000020704729B11F4A126902431D4B1A61B7
:100C800004E01C4A126982431A4B1A6170470146FC
:100C90000020012908D1174AD26912F0010F01D0B2
:100CA000012008E0002006E0124AD2680A4201D082
:100CB000012000E0002070470E49C8607047042002
:100CC0000C49C96801F00101012901D101200EE0A0
:100CD0000849C96811F0040F01D0022007E0054956
:100CE000C96811F0100F01D0032000E00420704704
:100CF0002301674500200240AB89EFCD00F8FF1FBC
:100D000010B50446CA48844208D10121042000F0ED
:100D100025FB0021042000F021FB46E0C548844269
:100D200008D10121082000F019FB0021082000F063
:100D300015FB3AE0C048844208D10121102000F0A0
:100D40000DFB0021102000F009FB2EE0BB4884427F
:100D500008D10121202000F001FB0021202000F01B
:100D6000FDFA22E0B648844208D10121402000F07B
:100D7000F5FA0021402000F0F1FA16E0B148844273
:100D800008D10121802000F0E9FA0021802000F044
:100D9000E5FA0AE0AC48844207D10121801500F051
:100DA000DDFA0021A01500F0D9FA10BD10B501211F
:100DB000084600F0D3FA0021012000F0CFFA10BD60
:100DC0002DE9F041024600250026002000230024E2
:100DD000002791F803C00CF00F0591F803C01CF038
:100DE000100F03D091F802C04CEA0505B1F800C01D
:100DF0001CF0FF0F31D0146800202BE04FF0010CE5
:100E00000CFA00F3B1F800C00CEA03069E4220D1B0
:100E100083004FF00F0C0CFA03F7BC4305FA03FCF8
:100E20004CEA040491F803C0BCF1280F06D14FF03E
:100E3000010C0CFA00FCC2F814C00AE091F803C0DF
:100E4000BCF1480F05D14FF0010C0CFA00FCC2F8C0
:100E500010C0401C0828D1D31460B1F800C0BCF108
:100E6000FF0F34DD546800202EE000F1080C4FF035
:100E7000010808FA0CF3B1F800C00CEA03069E4220
:100E800021D183004FF00F0C0CFA03F7BC4305FA95
:100E900003FC4CEA040491F803C0BCF1280F05D10F
:100EA00000F1080C08FA0CF8C2F8148091F803C09D
:100EB000BCF1480F07D100F1080C4FF0010808FA07
:100EC0000CF8C2F81080401C0828CED35460BDE84E
:100ED000F0814FF6FF710180022181700421C17001
:100EE00070470246002093680B4201D0012000E0C9
:100EF000002070470146886880B270470246002093
:100F0000D3680B4201D0012000E000207047014669
:100F1000C86880B2704701617047416170470AB18B
:100F2000016100E041617047C16070474FF4803259
:100F30000A438261816182618269826970470246E7
:100F40000020424B18684FF68073184040EA0210A8
:100F500008433E4B186070473D49C8617047F0B583
:100F60000A46002300240021002500F00046B6F1C7
:100F7000004F02D1354EF16901E0344E7168C0F383
:100F8000034583B200F44016B6F5401F08D121F0A6
:100F900070612E4E766826F070662C4F7E6012E0EF
:100FA00000F48016B6F5801F06D1032606FA05F474
:100FB000A14341F0706106E0460D360103FA06F6E2
:100FC000B14341F0706122B1460D360103FA06F6D5
:100FD000314300F00046B6F1004F02D11B4EF161E3
:100FE00001E01A4E7160F0BD30B500228B071C0F76
:100FF0000F2303FA04F2154B08338C1053F82430F6
:101000009343124C08348D1044F8253023468C103D
:1010100053F824308C07240F00FA04F423430B4CBC
:1010200008348D1044F8253030BD0A4908607047F7
:1010300000080140000C0140001001400014014074
:1010400000180140001C0140002001400000014048
:1010500000002042DC002042DC48006840F0010033
:10106000DA49086008464068D9490840D7494860CD
:1010700008460068D7490840D44908600846006817
:1010800020F4802008600846406820F4FE00486094
:101090004FF41F0088607047CC49096821F4803103
:1010A000CA4A11601146096821F480211160B0F527
:1010B000803F03D0B0F5802F0ED106E0C349096808
:1010C00041F48031C14A116007E0C049096841F428
:1010D000A021BE4A116000E000BF00BF704710B5FC
:1010E00001460022002300204A11012A02D1B74CF8
:1010F000236806E0022A02D1B44C236A01E0B34C13
:10110000636A01F01F02012494401C4201D00120B7
:1011100000E0002010BD70B500240025002600BFAF
:101120003120FFF7DCFF0646641CB4F5A06F01D048
:10113000002EF5D03120FFF7D2FF08B1012500E0E5
:101140000025284670BD01460020A04A106820F006
:10115000F80040EAC100106070479F49086070477E
:1011600002460020994B586820F47C1042EA0103A3
:101170001843964B58607047974908667047014678
:101180000020924A506820F00300084350607047E6
:101190008E48406800F00C007047014600208B4AE2
:1011A000506820F0F000084350607047014600206E
:1011B000864A506820F4E06008435060704701465A
:1011C0000020824A506820F4605040EAC10050601C
:1011D000704729B17D4A527A02437C4B5A7206E02D
:1011E0007A4A527AC343DBB21A40784B5A7270473C
:1011F0007A490860704701460020744A506820F41C
:1012000040400843506070470021754A11706F4A92
:1012100082F82010012802D0042808D103E001211F
:101220006F4A117004E005216D4A117000E000BFA3
:1012300000BF70476B49086070476449096A014301
:10124000624A11627047674944390860704730B597
:1012500000210022002400235C4D6D6805F00C0184
:1012600021B1042905D0082923D105E05E4D056090
:1012700022E05D4D05601FE0544D6D6805F470126D
:10128000524D6D6805F48034022505EB92421CB97D
:10129000564D554305600BE04C4D6D6815F4003F0D
:1012A00003D0524D5543056002E04F4D5543056054
:1012B00002E04D4D056000BF00BF444D6D6805F074
:1012C000F00109094A4D6B5C0568DD4045603F4D02
:1012D0006D6805F4E061090A454D6B5C4568DD40C9
:1012E00085603A4D6D6805F46051C90A404D6B5CEC
:1012F0004568DD40C560354D6D6805F44041890B9A
:101300003C4D6B5CC568B5FBF3F5056130BD29B19B
:101310002E4A526902432D4B5A6104E02B4A52690E
:1013200082432A4B5A61704729B1284A9269024385
:10133000264B9A6104E0254A92698243234B9A61C5
:10134000704729B1214AD2690243204BDA6104E097
:101350001E4AD26982431D4BDA61704729B11B4A8C
:10136000D2680243194BDA6004E0184AD26882431B
:10137000164BDA60704729B1144A12690243134BC5
:101380001A6104E0114A12698243104B1A617047D6
:1013900014494039086070470F49C86470470B49C9
:1013A000C87170470948406A40F080700749486238
:1013B000704701460020054A92680A4201D0012088
:1013C00000E0002070470149887270470010024019
:1013D0000000FFF8FFFFF6FE00004242D800424244
:1013E000201002408004424200127A0000093D00B1
:1013F0001C0000202C00002010B50446BF48844289
:1014000008D101218014FFF7A9FF0021A014FFF7E4
:10141000A5FF16E0BA48844208D101210014FFF765
:10142000AAFF00212014FFF7A6FF0AE0B548844276
:1014300007D10121C013FFF79EFF0021E013FFF742
:101440009AFF10BD10B50022028802F441520B88A9
:101450004C8823438C882343CC8823430C89234323
:101460004C8923438C892343CC8923431A4302802C
:10147000838B4FF2FF74234083830B8A038210BD5A
:101480002DE9F04F85B005460C464FF000090227C4
:101490004FF000084FF0010B0026B246A88B4FF228
:1014A00040010840A88302202884B5F81C90A06859
:1014B000022801D100BF36E0A08810B94FF0010B1F
:1014C00001E04FF0020B8E48854200D100E000BFE2
:1014D0006846FFF7BCFEDDF800A0E088B0F5007FAD
:1014E0000AD14FEA1A2000EB80004000A168B0FB4F
:1014F000F1F0401D86B20BE04FEA4B10BAFBF0F062
:1015000000EB80004000A168B0FBF1F0401D86B206
:101510000A20B6FBF0F606F00108A6EB0800C0F3BF
:101520004F074FEA0828022F01DBFF2F02DD0227B9
:101530004FF00008E08840EA080038432884A0887B
:10154000A1890843618808432188084340F400606A
:1015500040EA0909A5F81C9005B0BDE8F08F00210C
:10156000018041808180C180018141818181C1816F
:101570000721018270470021018041808180C18064
:101580000221816000218181704721B1028842F0EF
:101590004002028004E002884FF6BF731A400280C6
:1015A000704721B1828B42F48062828304E0828B97
:1015B0004FF6FF331A408283704770B50024002332
:1015C0000C110125A540ABB21AB185881D43858059
:1015D00004E08588DE43B6B23540858070BD10B525
:1015E0001AB183880B43838004E08388CC43A4B280
:1015F0002340838010BD81817047014688897047F0
:10160000A1F57E42FF3A04D0028842F48072028043
:1016100004E002884FF6FF631A400280704721B150
:10162000828842F00402828004E082884FF6FB73D5
:101630001A408280704702884FF2FF731A4002807E
:1016400002880A4302807047018841F4805101807A
:10165000704721B1028842F40052028004E00288FF
:101660004DF6FF731A4002807047024600200129A0
:1016700001D0108B00E0908A70470146088A7047BD
:10168000B1F5804F04D1028842F48042028004E028
:1016900002884BF6FF731A40028070470246002012
:1016A00013890B4201D0012000E000207047CA439B
:1016B00002817047F0B50246002000240023002577
:1016C00001F00F070126BE40B4B20B1101269E4067
:1016D000B3B2968806EA03051689264202D00DB1F8
:1016E000012000E00020F0BD10B5002201F00F0441
:1016F0000123A3409AB2D343038110BD00300140BF
:1017000000380040003C004010B50446FE488442CA
:1017100008D10121C014FFF721FE0021E014FFF7DA
:101720001DFEC4E0B4F1804F08D101210846FFF747
:1017300022FE00210120FFF71EFEB8E0F34884429C
:1017400008D101210220FFF716FE00210220FFF739
:1017500012FEACE0EE48844208D101210420FFF7DC
:101760000AFE00210420FFF706FEA0E0E9488442BB
:1017700008D101210820FFF7FEFD00210820FFF716
:10178000FAFD94E0E448844208D101211020FFF7DB
:10179000F2FD00211020FFF7EEFD88E0DF488442D3
:1017A00008D101212020FFF7E6FD00212020FFF7CE
:1017B000E2FD7CE0DA48844208D101214014FFF7C1
:1017C000CDFD00216014FFF7C9FD70E0D5488442CB
:1017D00009D10121C804FFF7C1FD00214FF4002009
:1017E000FFF7BCFD63E0D048844209D10121080520
:1017F000FFF7B4FD00214FF48010FFF7AFFD56E076
:10180000CA48844209D101214805FFF7A7FD0021FC
:101810004FF40010FFF7A2FD49E0C548844208D10B
:1018200001214020FFF7A7FD00214020FFF7A3FD85
:101830003DE0C048844208D101218020FFF79BFD94
:1018400000218020FFF797FD31E0BB48844208D19A
:1018500001218015FFF78FFD0021A015FFF78BFDFB
:1018600025E0B648844209D101210804FFF776FD3E
:1018700000214FF48030FFF771FD18E0B04884423A
:1018800009D101214804FFF769FD00214FF4003020
:10189000FFF764FD0BE0AB48844208D101218804C6
:1018A000FFF75CFD00214FF48020FFF757FD10BDCE
:1018B00000220288944B98420ED0994B98420BD04C
:1018C000B0F1804F08D0914B984205D0904B984290
:1018D00002D0904B984204D14FF68F731A404B8838
:1018E0001A438D4B984207D08C4B984204D04FF648
:1018F000FF431A40CB881A4302808B8883850B886C
:101900000385814B98420BD0854B984208D08B4B76
:10191000984205D08A4B984202D08A4B984201D116
:101920000B7A038601238382704770B5002400225E
:101930000023058C4FF6FE7635400584028C8388A3
:10194000048B4FF68F752C40B51E2C400D882C4310
:10195000751E2A400D892A434D882A436A4DA842A4
:101960000BD06F4DA84208D0744DA84205D0744DDD
:10197000A84202D0734DA84213D14FF6F7752A4002
:101980004D892A434FF6FB752A408D882A434FF62E
:10199000FF652B404FF6FF552B408D892B43CD899A
:1019A0002B4383800483CD888586028470BD70B507
:1019B000002400220023058C4FF6EF763540058485
:1019C000028C8388048B48F6FF752C404FF6FF4548
:1019D0002C400D882D0644EA15444FF6DF752A4049
:1019E0000D892D0542EA15424D882D0542EA154222
:1019F000454DA84202D04A4DA8421BD14FF67F75F3
:101A00002A404D892D0542EA15424FF6BF752A40FE
:101A10008D882D0542EA15424FF6FF352B404FF2D7
:101A2000FF752B408D89AD0443EA1543CD89AD0484
:101A300043EA154383800483CD880587028470BD03
:101A400070B5002400220023058C4FF6FF66354058
:101A50000584028C8388848B4FF68F752C404FF65B
:101A6000FC752C400D882C434FF6FF552A400D89FC
:101A70002D0642EA15424D882D0642EA1542224DB6
:101A8000A84202D0264DA8421BD14FF2FF752A4032
:101A90004D892D0642EA15424FF6FF352A408D88C2
:101AA0002D0642EA15424EF6FF752B404DF6FF75A6
:101AB0002B408D892D0543EA1543CD892D0543EA39
:101AC000154383808483CD888587028470BD70B57B
:101AD000002200230024058C4EF6FF763540058455
:101AE000038C8488828B48F6FF752A404FF6FF45A9
:101AF0002A400D882D0642EA15424DF6FF752B400F
:101B00000D892D0720E00000002C0140000400405A
:101B100000080040000C004000100040001400408D
:101B200000340140004C014000500140005401408D
:101B300000180040001C0040002000400040014010
:101B4000004401400048014043EA15434D882D07F9
:101B500043EA1543F84DA84202D0F84DA84206D1F9
:101B60004BF6FF752C408D89AD0544EA1544848001
:101B70008283CD88A0F84050038470BD828B4FF2E1
:101B8000FF331A408283828B0B0642EA1342828320
:101B90007047F0B50C461546002200210026078C40
:101BA0004EF6FF7C07EA0C070784828B018C27071F
:101BB0003E0C40F6FF473A402F0642EA17421F0705
:101BC00042EA1742DC4FB8420ED0DC4FB8420BD08D
:101BD000B0F1804F08D0DA4FB84205D0D94FB842A3
:101BE00002D0D94FB84206D14DF6FF77394046F4BE
:101BF0008057394305E047F6FF57394044F4805792
:101C0000394382830184F0BD828B4FF6F3731A400F
:101C10008283828B0A4382837047F0B50C46154657
:101C2000002200210026078C4FF6FF6C07EA0C0704
:101C30000784828B018C27063E0C4FF60C773A40C6
:101C40001F0545EA17473A43BB4FB8420ED0BB4F7A
:101C5000B8420BD0B0F1804F08D0B94FB84205D090
:101C6000B84FB84202D0B84FB84206D14FF6FF572E
:101C7000394046F48077394305E04FF2FF57394049
:101C800044F48077394382830184F0BD028B4FF2A4
:101C9000FF331A400283028B0B0642EA134202838F
:101CA0007047F0B50C461546002200210026078C2F
:101CB0004FF6EF7C07EA0C070784028B018C27059F
:101CC0003E0C40F6FF473A401F0742EA17422F06F4
:101CD00042EA1742984FB8420ED0984FB8420BD004
:101CE000B0F1804F08D0964FB84205D0954FB8421A
:101CF00002D0954FB84206D14FF6DF77394046F013
:101D00001007394305E04FF65F77394044F010077C
:101D1000394302830184F0BD028B4FF6F3731A40FE
:101D20000283028B0A4302837047F0B50C461546C6
:101D300000220021068C4FF6FE773E400684028B7F
:101D4000018C4FF60C7632401E0545EA16463243AA
:101D5000794EB0420ED0794EB0420BD0B0F1804FE8
:101D600008D0774EB04205D0764EB04202D0764EC3
:101D7000B04206D14FF6FD76314044F001063143C2
:101D800005E04FF6F576314044F001063143028319
:101D90000184F0BD70B505460C46674885420ED0FB
:101DA000664885420BD0B5F1804F08D06448854223
:101DB00005D06448854202D06348854200D100E0E6
:101DC00000BF208850B92389A28861882846FFF780
:101DD000ACFFE1882846FFF79FFF25E02088042814
:101DE0000AD12389A28861882846FFF75AFFE18833
:101DF0002846FFF74BFF17E0208808280AD12389DF
:101E0000A28861882846FFF708FFE1882846FFF787
:101E1000FBFE09E02389A28861882846FFF7B9FE06
:101E2000E1882846FFF7AAFE70BD2DE9F04105467E
:101E30000C4600260127608808B9022600E000262B
:101E4000A088012801D1022700E001272088A0B93D
:101E50002389A28861882846FFF767FFE188284622
:101E6000FFF75AFF23893A4631462846FFF719FF04
:101E7000E1882846FFF70AFF13E02389A2886188DA
:101E80002846FFF70EFFE1882846FFF7FFFE23896B
:101E90003A4631462846FFF748FFE1882846FFF7D3
:101EA0003BFFBDE8F0810A884B881A438B881A43B0
:101EB000CB881A430B891A434B891A438B891A43DF
:101EC000A0F8442070474FF6FF7181800021018007
:101ED000C180418001727047002101804180818072
:101EE000C180018141818181C181704700210180D0
:101EF0004180012181800021C18001817047002142
:101F0000018041808180C180018141818181704750
:101F100021B1028842F00102028004E002884FF6FB
:101F2000FE731A400280704781B1B0F8442042F439
:101F30000042A0F844200FE0002C01400034014092
:101F40000004004000080040000C0040B0F84420AD
:101F5000C2F30E02A0F84420704710B51AB183896D
:101F60000B43838104E08389CC43A4B22340838163
:101F700010BD8182704741EA0203A0F848307047E3
:101F800010B51AB183890B43838104E08389CC4364
:101F9000A4B22340838110BD01894FF6F87211402D
:101FA000018170470A46002101894FF68F7319405D
:101FB00011430181704730B504460D46294620463D
:101FC000FFF7F0FF208940F00700208130BD2DE9A8
:101FD000F04104460D4616461F46602D06D13B468D
:101FE000012231462046FFF75CFE05E03B46012218
:101FF00031462046FFF799FE29462046FFF7D2FFDB
:10200000208940F007002081BDE8F08130B50C4602
:1020100000210189C9B21D0642EA1545254329431D
:10202000018130BD2DE9F04105460E461746984620
:10203000002443463A4631462846FFF7E7FF2C89FD
:102040004FF6F870044044F007044FF68F700440D8
:1020500044F070042C81BDE8F081F0B504460D46D3
:1020600016461F463B46324629462046FFF7CEFF1E
:10207000208940F480402081F0BD01858282704734
:102080000A46002101884FF68F73194011430180E1
:102090007047F0B50C4615461E460021002200236D
:1020A0000189028B038C4FF6F877394021434FF6B4
:1020B000FC473A4040F201173A434FF6DD773B4088
:1020C000370545EA17473B43018102830384F0BD8E
:1020D0000A460021018B4FF68F731940114301838B
:1020E00070470A460021018B48F6FF73194013061A
:1020F00041EA1341018370470A460021818B4FF664
:102100008F7319401143818370470A460021818BE8
:1021100048F6FF731940130641EA13418183704763
:1021200021B1028842F08002028004E002884FF66A
:102130007F731A400280704721B1828842F0040206
:10214000828004E082884FF6FB731A4082807047D9
:1021500021B1828842F00802828004E082884FF632
:10216000F7731A408280704721B1828842F00102E1
:10217000828004E082884FF6FE731A4082807047A6
:102180000A460021018B4FF6F77319401143018372
:1021900070470A460021018B4FF2FF731940130666
:1021A00041EA1341018370470A460021818B4FF6B3
:1021B000F77319401143818370470A460021818BD0
:1021C0004FF2FF731940130641EA134181837047B0
:1021D0000A460021018B4FF6FB731940114301831E
:1021E00070470A460021018B4FF6FF331940130652
:1021F00041EA1341018370470A460021818B4FF663
:10220000FB7319401143818370470A460021818B7B
:102210004FF6FF331940130641EA1341818370479B
:102220000A460021018B4FF67F7319401143018349
:1022300070470A460021018BC1F30E01130641EAE3
:102240001341018370470A460021818B4FF67F734B
:1022500019401143818370470A460021818BC1F3E5
:102260000E01130641EA1341818370470A4600219B
:10227000018C4FF6FD7319401143018470470A46E3
:102280000021018C4FF6F773194011430184704708
:102290000A460021018C4FF6DF731940130541EA0D
:1022A0001341018470470A460021018C4FF67F7369
:1022B0001940130541EA1341018470470A46002181
:1022C000018C4FF6FF531940130641EA1341018474
:1022D00070470A460021018C4FF2FF731940130624
:1022E00041EA1341018470470A460021018C4DF6F2
:1022F000FF731940130741EA13410184704730B559
:10230000002301248C40A3B2048CDD43ADB22C40E9
:102310000484048C02FA01F5ADB22C43048430BD70
:1023200030B5002304248C40A3B2048CDD43ADB24D
:102330002C400484048C02FA01F5ADB22C430484D1
:1023400030BD70B503460020002418461830012522
:102350008D40ACB21D8CE643B6B235401D8409B148
:10236000082909D100EB6100056825F070050560BA
:102370000568154305600CE00D1FADB200EB65006C
:10238000056825F4E04505600568160645EA16452A
:10239000056070BD21B1028842F00202028004E0B3
:1023A00002884FF6FD731A400280704721B10288FF
:1023B00042F00402028004E002884FF6FB731A40E8
:1023C0000280704721B1828842F08002828004E05E
:1023D00082884FF67F731A408280704702884FF6DA
:1023E000F7731A40028002880A430280704782888D
:1023F0004FF68F731A40828082880A43828070472A
:1024000002894FF6F8731A40028102890A43028159
:10241000704702894FF67F731A40028102890A438E
:10242000028170478184704781857047818670473B
:102430000187704781877047A0F840107047028875
:102440004FF6FF431A40028002880A430280704719
:102450000146888E70470146088F70470146888F75
:1024600070470146B1F8400070470146888C7047BC
:102470000146088D704702460020138A0B4201D0A6
:10248000012000E000207047CA430282704730B547
:102490000246002000230024158A05EA01039589DD
:1024A00005EA010413B10CB1012000E0002030BDA9
:1024B000CA4302827047000010B50446C4F3C0024C
:1024C0000121FC48FEF72BFDC4F380020221F948EC
:1024D000FEF725FDC4F340020221F748FEF71FFD79
:1024E00004F001020121F448FEF719FD2021F24811
:1024F000FEF711FDF1480068F149B0FBF1F000EB87
:10250000800080000621B0FBF1F0EE49086004E095
:10251000EC480068401EEB490860EA480068002863
:10252000F6DC2021E448FEF7F8FCE4480068E449C2
:10253000B0FBF1F000EB800080000621B0FBF1F071
:10254000E049086004E0DF480068401EDD4908609B
:10255000DC4800680028F6DC10BD10B504461021E8
:10256000D548FEF7DAFC2011FFF7A6FF04F00F00B4
:10257000FFF7A2FF10BD10B50120FFF7EEFFCF4817
:102580000068CF49B0FBF1F040F6B831484306216E
:10259000B0FBF1F0CB49086004E0CA480068401E77
:1025A000C8490860C74800680028F6DC10BD10B5AF
:1025B000C548007840F00400C3490870097841F02C
:1025C0000800FFF7CAFF10BD08B501213120FEF752
:1025D000ABFE0121C803FEF7C2FC0320ADF80000EA
:1025E00010208DF8030003208DF802006946B148E1
:1025F000FEF7E6FB3320ADF8000010208DF8030055
:1026000002208DF802006946AB48FEF7D9FB102185
:10261000A948FEF782FC2021A748FEF77EFC012195
:10262000A548FEF77AFC0221A348FEF776FC0221BA
:10263000A048FEF772FC01219E48FEF76EFC08BD23
:1026400070B505460C46FFF7BFFF9C4800689C49E3
:10265000B0FBF1F04AF6C87148430621B0FBF1F037
:102660009849086004E097480068401E9549086052
:10267000944800680028F6DC9348C4700571002077
:102680009149487188714870012C04DD08464078F2
:1026900040F0080048700320FFF70EFF87480068ED
:1026A0008749B0FBF1F041F2941148430621B0FB99
:1026B000F1F08449086004E082480068401E8149C6
:1026C0000860804800680028F6DC0320FFF7F4FE6D
:1026D0007A4800687A49B0FBF1F041F2941148431E
:1026E0000621B0FBF1F07749086004E07548006806
:1026F000401E74490860734800680028F6DC032017
:10270000FFF7DAFE6D4800686D49B0FBF1F041F269
:10271000941148430621B0FBF1F06A49086004E0D7
:1027200068480068401E67490860664800680028DD
:10273000F6DC0220FFF7C0FE604800686049B0FB8D
:10274000F1F0642148430621B0FBF1F05D490860D7
:1027500004E05C480068401E5A4908605948006817
:102760000028F6DC5849497841F02000FFF7F5FED3
:10277000042055490870FFF71AFFFFF7FCFE0220FE
:1027800051498870897841F00400FFF7E6FE4B4814
:1027900000684B49B0FBF1F041F294114843062127
:1027A000B0FBF1F04749086004E046480068401E6D
:1027B00044490860434800680028F6DC70BD10B545
:1027C000044610213C48FEF7A6FB2011FFF774FEDB
:1027D00004F00F00FFF770FE10BD38B505460C463B
:1027E0003AA0006800903848C078A04200DC00247D
:1027F0003548457184711DF804102944C9B241F06F
:102800008000FFF7AAFE38BD70B505460E46144697
:1028100031462846FFF7E1FF3BE02B4840792A4943
:10282000097988420BDB00202749487108468079E6
:10283000401C88710A4691795079FFF7CEFF2078C5
:102840000A280AD120488079401C1F4988710A460D
:1028500091795079FFF7C1FF1AE020780D2805D152
:10286000194881790020FFF7B8FF11E02078BF28D0
:1028700006DD2178C039164A505CFFF7A0FF02E060
:102880002078FFF79CFF10484079401C0E494871A2
:10289000641C20780028C0D170BD10B50A480078AB
:1028A00020F0040008490870097841F00800FFF79B
:1028B00054FE10BD0014014000100140080000202B
:1028C00040420F003000002034000020004014542B
:1028D000D263000810B52E48007840F001002C4962
:1028E0000870097841F00800FFF737FE10BD10B5F9
:1028F0002748007820F0010025490870097841F048
:102900000800FFF72AFE10BD10B52148007840F0FE
:1029100002001F490870097841F00800FFF71DFE0A
:1029200010BD10B51A48007820F002001849087050
:10293000097841F00800FFF710FE10BD10B518200F
:10294000FFF70BFE10BD10B51C20FFF706FE10BDF3
:1029500070B504460E4604F00704402141EAC40065
:10296000FFF7FBFD002504E0705DFFF728FF681C02
:10297000C5B2082DF8DB70BD70B505460E4614468D
:1029800031462846FFF729FF2046FFF718FF70BDA4
:10299000340000201FB501211020FEF7C5FC0C20DB
:1029A000ADF80C0004208DF80F0003208DF80E0008
:1029B00003A96648FEF704FA01210846FEF7B4FCB5
:1029C00002210846FEF710FB03210220FEF70CFB54
:1029D0000C20019000208DF8080010208DF80900CF
:1029E00001208DF80A0001A8FDF72EFE0C20FDF74E
:1029F000A2FE08208DF800000F208DF801008DF850
:102A0000020001208DF803006846FDF7A6FD0920AD
:102A10008DF800006846FDF7A0FD1FBD10B54B48BE
:102A200080684B49088004204A4908604A48406A47
:102A300000283EDD4948007890B34548008800F002
:102A40000400042815D14248008800F00800082836
:102A500007D14148406A42490968081A404908605C
:102A60001CE03D48406A3E49096808443C4908600A
:102A700014E03748008800F00800082807D13648DD
:102A8000406A3749096808443549086006E0324819
:102A9000406A33490968081A3149086003F0F2F8BE
:102AA0002E480078032804D004212948008800F02B
:102AB0006EF810BD10B5254880682A4908800820A6
:102AC000244908602448806A00283EDD23480078B5
:102AD00090B32448008800F00800082815D1214848
:102AE000008800F00400042807D11B48806A1C49B4
:102AF000096808441A4908601CE01748806A1849A8
:102B00000968081A1649086014E01648008800F0A1
:102B10000400042807D11048806A11490968081A7E
:102B20000F49086006E00C48806A0D4909680844AE
:102B30000B49086003F0A6F808480078032804D081
:102B400008210848008800F022F810BD001001405C
:102B50004200002014040140000300204000002037
:102B60003C0000204400002008B501211020FEF7A1
:102B7000DBFB8020ADF8000028208DF80300022048
:102B80008DF8020069465748FEF71AF908BD70B57E
:102B900004460D46042D51D153480078A0B904F0E5
:102BA0008000802810D1C4F38000C4F3C0018842A3
:102BB0000AD001204C490870002340F24D42032105
:102BC000184600F08BFD10E04748007801280CD132
:102BD00004F08000802808D1C4F38000C4F3C00151
:102BE000884202D10220404908703F4800780228FC
:102BF0000CD114F0800F09D1C4F38000C4F3C001DC
:102C0000884203D00120384908706AE036480078CD
:102C1000022866D114F0800F63D1C4F38000C4F39E
:102C2000C00188425DD103202F490870002340F283
:102C30004C420321184600F051FD52E0082D50D1BE
:102C400029480078A0B904F08000802810D1C4F38E
:102C50008000C4F3C00188420AD1012022490870D3
:102C6000002340F24D420321184600F037FD10E0EA
:102C70001D48007801280CD104F08000802808D17C
:102C8000C4F38000C4F3C001884202D00220164978
:102C900008701548007802280CD114F0800F09D173
:102CA000C4F38000C4F3C001884203D101200E495F
:102CB000087016E00C480078022812D114F0800F3A
:102CC0000FD1C4F38000C4F3C001884209D00320AF
:102CD00005490870002340F24C420321184600F0D9
:102CE000FDFC70BD001001404000002008B501212E
:102CF0001420FEF719FB4FF47F40ADF800001020C0
:102D00008DF8030002208DF8020069465448FEF752
:102D100057F84FF4F850ADF8000010208DF803007C
:102D200002208DF8020069464E48FEF749F84FF040
:102D3000F8504C49103108604FF07F404849086115
:102D400008BD10B50246002004E0002322F8103030
:102D5000431CD8B20528F8DB002900DC10BD002098
:102D60001BE000290FDD0A2391FBF3F403FB14138E
:102D70003D4C34F81330C0F1040422F814300A2317
:102D800091FBF3F107E0022805DA374B1B88C0F10D
:102D9000040422F81430431CD8B20528E1DBD388A0
:102DA00043F40043D38000BFD8E71EB54FF0F8507E
:102DB0002C49103108604FF07F40294908612B48A9
:102DC00000682B490968884208DA284800682849C1
:102DD0000968081A2749C96988420EDC2348006837
:102DE0002349096888420BDD2048006820490968AA
:102DF000401A2049C969884202DD00201B49486009
:102E00001A48406848B91A4800680A2190FBF1F452
:102E100021466846FFF795FF08E0144800680A213C
:102E200090FBF1F421466846FFF78BFF12480078CB
:102E3000401C1149087008460078052801DB002075
:102E400008700D4909783DF81100054908610B48E3
:102E50000949097830F811000249103108601EBD97
:102E600000100140000801401264000848000020E2
:102E70003C000020000300205000002026640008D1
:102E800008B50021A648FEF780FBA548FEF7B4FA76
:102E900000214FF48050FEF754FA2020ADF80000D6
:102EA00004208DF8030069469E48FDF789FF402005
:102EB000ADF8000069469B48FDF782FF8020ADF821
:102EC000000069469748FDF77BFF1020ADF8000031
:102ED00069469448FDF774FF08BD10B5FFF7D0FFB1
:102EE00010BD00B587B001210420FEF71DFA0121B5
:102EF00041F20100FEF718FA2020ADF81800032077
:102F00008DF81A0018208DF81B0006A98548FDF7DA
:102F100057FF8020ADF8180006A98248FDF750FF42
:102F20004020ADF8180048208DF81B0006A97D4808
:102F3000FDF746FF1020ADF818008DF81B0006A91C
:102F40007848FDF73DFF0020ADF804004FF4827093
:102F5000ADF806000020ADF808000220ADF80A0028
:102F60000120ADF80C004002ADF80E001820ADF8BD
:102F700010000020ADF812000720ADF8140001A9E0
:102F80006748FEF75FFA01216548FEF7FEFA07B0D1
:102F900000BD10B5FFF7A5FF10216248FDF7BBFF8C
:102FA00010BD10B5044600BF02215D48FEF776FB58
:102FB0000028F9D021465A48FEF71DFB00BF012129
:102FC0005748FEF76BFB0028F9D05548FEF715FB74
:102FD000C0B210BD10B510215248FDF79EFF04206D
:102FE000FFF7DFFF10214F48FDF795FF10BD10B52B
:102FF000002410214B48FDF790FF0520FFF7D1FF7B
:1030000000BFA520FFF7CDFF044604F00100012812
:10301000F7D010214348FDF77EFF002010BD10B50A
:1030200010214048FDF779FF0620FFF7BAFF102175
:103030003C48FDF770FF10BD70B504460D461646BE
:10304000FFF7EDFF10213748FDF767FF0220FFF77C
:10305000A8FF2812FFF7A5FFE8B2FFF7A2FF03E0E1
:103060002078FFF79EFF641C3000A6F101018EB2AC
:10307000F6D110212B48FDF74EFFFFF7B8FFFFF701
:10308000A9FF70BD70B505460E46144610212548AF
:10309000FDF743FF0320FFF784FF3012FFF781FFA6
:1030A000F0B2FFF77EFF04E0A520FFF77AFF28705B
:1030B0006D1C2188481E20800029F5D11021194857
:1030C000FDF729FF002070BD10B5A520FFF769FFAF
:1030D00010BD10B5044610211248FDF71EFFFFF782
:1030E0009EFF0120FFF75DFF2046FFF75AFF1021EA
:1030F0000C48FDF710FF10BD10B500241021094841
:10310000FDF70BFF0520FFF74CFFA520FFF749FF58
:10311000044610210348FDF7FEFE204610BD0000C6
:10312000003001400008014070B504460D461646C7
:10313000B2B2A1B22846FFF77FFF70BDF8B50446D2
:103140000D461646B0B200906A46A1B22846FFF777
:1031500099FFF8BD2DE9F0418EB004468846002065
:10316000A060C4F800802A2108FB01F00A4603A9E8
:10317000FFF7E4FF0226012520E003A9701C095C8B
:1031800004F10C0040F8251050F82500010204F16C
:103190000C0040F8251050F8250003A9895D08436C
:1031A00004F10C0141F82500084650F82500A0F56F
:1031B0007F41FF3900D103E0B61C6D1C2A2EDCD301
:1031C00000BF012D01D0152D05D90020A0604FF6BC
:1031D000FF70E06001E0681EA060A06814280ADAB1
:1031E0006E1C06E04FF6FF7104F10C0040F826104B
:1031F000761C152EF6D3A06840B39DF80D00E06054
:10320000E0680002E0609DF80C10E0680843E060B0
:10321000A0684004010C0DF10E0002F06FFC07469F
:10322000E06880B2B84211D0E760F8B28DF80400CF
:10323000380A8DF805002A2108FB01F0022201A9B5
:10324000FFF772FF01200EB0BDE8F0810020FAE721
:1032500070B504460E46002E03DD642E01DA01200F
:1032600000E0002028B900221146104601F054F871
:10327000012631462046FFF76DFF012802D10520C7
:1032800001F054F9A06810B90020606001E001204D
:103290006060012518E004F10C0050F825004E494B
:1032A0008968884209D904F10C0050F825004A4980
:1032B0004968884201D2012000E0002018B90520A9
:1032C00001F034F903E06D1CA068A842E3DC00BF04
:1032D00070BDF0B58BB004460027A06814280CDA46
:1032E000A068451C06E04FF6FF7104F10C0040F8A1
:1032F00025106D1C152DF6D304E0A068142801DDFF
:103300001420A0600025002611E004F10C0050F804
:103310002600C0B20DF8050004F10C0050F826009C
:10332000C0F30721681C0DF80010AD1C761C2A2D77
:10333000EBD3A06898B1A0684004010C0DF1020025
:1033400002F0DCFB0746E068B84201D10BB0F0BDEB
:10335000E760F8B28DF80000380A8DF801002A22E3
:10336000216801FB02F06946FFF7DEFE00BFEDE7D2
:1033700038B5044604F10C00616850F82100C0B271
:103380008DF8000004F10C00616850F82100000A7B
:103390008DF801002A2221685143626801EB420046
:1033A00002226946FFF7C0FEA06881B204F1100056
:1033B00002F084FB0546E560E8B28DF80000280ABB
:1033C0008DF801002A22216801FB02F002226946E1
:1033D000FFF7AAFE38BD00000003002038B5012128
:1033E0000820FDF7A1FF0020ADF80000002409E04F
:1033F000BDF80000874951F82410084380B2ADF8A9
:103400000000641C042CF3D310208DF8030002206C
:103410008DF8020069468048FDF7D2FCBDF8000037
:1034200000047D49103108600020ADF80000002440
:1034300009E0BDF80000794951F82410084380B232
:10344000ADF80000641C062CF3D304208DF80300B3
:1034500002208DF8020069466F48FDF7B1FC38BDC7
:10346000027A3AB3012A0BD0022A1CD0032A35D1A2
:10347000012904D101220272694A1268C2602DE05A
:10348000674BC2681B689A1A642A06DD0222027220
:1034900001224272921EC26004E019B90322027234
:1034A000121FC2601AE021B9002202725C4A12683F
:1034B000C26013E05A4BC2681B689A1A642A06DD80
:1034C0000322027201224272921EC26005E00129AB
:1034D00003D1022202728A1EC26000BF00BF704781
:1034E00070B5002541E04B4850F825004A4910319D
:1034F0000860002400E0641C04EB4400494901EB2F
:10350000C0000069A84201D0182CF4DB22E004EBD3
:103510004400444901EBC0000069A84200D01BE010
:103520003D4A0832126804EB44033E4E06EBC303E7
:103530005B693A4E56F823301A4201D1012200E06D
:103540000022114604EB4402364B03EBC200FFF7A6
:1035500087FF641C182CDADB00BF2E4850F82500CA
:1035600000042D49103108606D1C042DBBDB70BDBB
:1035700070B500244BE004EB44002A4901EBC00085
:10358000407A012842D104EB440001EBC000007AEC
:10359000022811D104EB440001EBC00000230221FA
:1035A0004268184600F09AF8002004EB44011D4AD6
:1035B00002EBC101487229E004EB4400194901EB18
:1035C000C000007A032821D1002515E004EB440057
:1035D000144901EBC0004068134951F83510884286
:1035E00009D1114800EBC5000023022142681846AA
:1035F00000F074F802E06D1C032DE7D300BF00203B
:1036000004EB4401074A02EBC1014872641C182C08
:10361000B1DB70BD30640008000C0140406400085C
:103620000400002054000020640200200021816278
:103630004162C162284A116070470146C86A032886
:1036400003D10120244A106070470020FCE730B508
:1036500003460C461846FFF7F0FF00B130BD586A2C
:1036600000EB400003EB800094E8260026C0586A77
:10367000401C0321B0FBF1F201FB12005862D86A32
:10368000401CD86200BFE9E70146C86A20B90220A1
:10369000114A1060012070470020FCE710B5034676
:1036A0000C461846FFF7F0FF00B110BD986A00EB1A
:1036B000400003EB800207CA84E80700986A401CB8
:1036C0000321B0FBF1F201FB12009862D86A401EA0
:1036D000D86200BFE9E700007C020020FEB5074683
:1036E0000C4615461E468DF8004001950296694627
:1036F0000248FFF7ACFF0020FEBD0000540400208C
:103700002DE9F04107460D4614461E46052D15D2FB
:10371000DFE805F0031516E4F60000F0CFFCFFF734
:103720005DFE02F0DBF802F031F902F0F9FBFFF781
:103730001BFA02F031FBAA48AA4908604BE14AE1B2
:10374000204640F2F532A11A944274D00CDCA0F568
:103750007A700D2825D2DFE800F01F252B31373D88
:1037600043494F555B616700072970D007DC072983
:10377000F0D2DFE801F0B16D737B818D93002529D4
:103780005FD004DC08296FD009290AD198E02629E6
:1037900078D02729F9D199E04FF47A7091490968D6
:1037A000884799E040F2E9308E490968884793E0FC
:1037B00040F2EA308B49096888478DE040F2EB30EF
:1037C00088490968884787E04FF47B708549096814
:1037D000884781E040F2ED308249096888477BE004
:1037E00040F2EE307F490968884775E040F2EF30DB
:1037F0007C49096888476FE04FF47C707949096813
:10380000884769E040F2F13076490968884763E00B
:1038100040F2F2307349096888475DE040F2F330C6
:1038200070490968884757E04FF47D706D49096811
:10383000884751E0FFE740F2F5306A490968884758
:103840004AE040F21A4067490968884744E02BE0A3
:1038500040F2F6306349096888473DE040F2F730AE
:1038600060490968884737E024E00BE04FF47E7038
:103870005C49096888472FE040F2F93059490968E6
:10388000884729E040F21B4056490968884723E0F1
:1038900040F2FA305349096888471DE040F2FB3096
:1038A00050490968884717E04FF47F704D4909680F
:1038B000884711E040F2FD304A49096888470BE02B
:1038C00040F2FE3047490968884705E040F21C4055
:1038D00044490968884700BF00BF7CE0A4F24C401F
:1038E0000B284AD2DFE800F0060D13191F252B31F3
:1038F000373D430040F24C403A49096888473CE074
:103900003DE040F24D4037490968884735E040F2D4
:103910004E403449096888472FE040F24F40314912
:103920000968884729E04FF48A602E49096888476A
:1039300023E040F251402B49096888471DE040F2DE
:10394000524028490968884717E040F2534025490A
:103950000968884711E040F25440224909688847C5
:103960000BE040F255401F490968884705E040F2E6
:1039700056401C490968884700BF00BF2BE0A4F5EA
:103980009660082825D2DFE800F004080D1115190B
:103990001D21304602F0CAF81BE04FF0FF3002F064
:1039A00055F916E0012002F02EF812E0002002F096
:1039B0002AF80EE0022002F026F80AE0032002F0C6
:1039C00022F806E0042002F01EF802E002F054F8AB
:1039D00000BF00BF00BF00BF0020BDE8F0810000B5
:1039E000334200087003002070B506460D460121E1
:1039F000002000F03CFACF490978884203D000212A
:103A0000022000F034FA0021084600F030FACA49DA
:103A1000087008460078012804D0022806D0032840
:103A20000BD107E02020A870687007E02020A87163
:103A3000687103E00020687200E000BF00BFBF486B
:103A40000169284600F088FA002403E02020BC49E0
:103A50000855641C102CF9DB0020B94908740024B7
:103A600003E0305DB6490855641C305D0028F8D18C
:103A700020203055002403E02020B2490855641C62
:103A8000102CF9DB0020AF490874002403E0285D06
:103A9000AC490855641C285D0028F8D12020285521
:103AA000A74A00210846FEF7AFFEA64A01210020E2
:103AB000FEF7AAFE70BD10B50446072C29D2DFE838
:103AC00004F00405101B281C1D0000BF002201216A
:103AD000104601F023FF00220221104601F01EFFD4
:103AE00022E001221146002001F018FF00220221ED
:103AF000104601F013FF17E000BF00BF012211467E
:103B0000002001F00BFF01220221002001F006FF3E
:103B10000AE000220121104601F000FF00220221EC
:103B2000104601F0FBFE00BF00BF01F0BDFF28B949
:103B300001220021084601F0F1FE08E001F0B4FF87
:103B4000012804D100221146104601F0E7FE10BD05
:103B500010B590B014210BA802F050FB142106A858
:103B600002F04CFB7548406920B977A10BA800F022
:103B70007BFAD3E071484069012831D178A10BA8C4
:103B800000F072FA6D487CA1C26806A802F010FA33
:103B900004466A48806901281BD1012C0DD1002000
:103BA0008DF81B009DF818008DF81A002E208DF856
:103BB000190030208DF81800B0E0601E06A9085CDE
:103BC00008552E21601E06AA11540021601C1154B4
:103BD000A4E0012CCDDD0021601E06AA11549DE059
:103BE0005648406902280BD054484069032807D042
:103BF00052484069052803D050484069062860D1E2
:103C00004E48C06918B95DA10BA800F02DFA4B48C9
:103C100059A1C26801A802F0CBF90446474880695F
:103C200001281BD1012C0DD100208DF807009DF833
:103C300004008DF806002E208DF8050030208DF848
:103C4000040011E0601E01A9085C08552E21601EC9
:103C500001AA11540021601C115405E0012C03DD60
:103C60000021601E01AA115401A90BA802F0BAFAA2
:103C70003248006800903148836846A1426806A82F
:103C800002F096F904460B2C0FDA002106AAA01CBC
:103C90001154601E06A9095C601C11542E2006A94F
:103CA00008553021601E115438E0601E06A9085CDA
:103CB00008552E21601E06AA11540021601C1154C3
:103CC0002CE01E484069042828D11C48C0690128FE
:103CD00012D134A10BA800F0C7F936A106A800F054
:103CE000C3F9164824A1826801A802F061F901A96C
:103CF00006A802F077FA11E034A10BA800F0B4F99D
:103D000038A106A800F0B0F90C481BA1C26801A8B0
:103D100002F04EF901A906A802F064FA07494869C1
:103D2000FFF7C9FE06A90BA8FFF75EFE002010B042
:103D300010BD00005803002080020020A8040020CD
:103D40008404002095040020D09AD0B0D0BBD0B815
:103D5000D0B1D180D0BED0B2D0BAD0B02E00000049
:103D6000D0A0D183D187D0BDD0BED0B520D183D053
:103D7000BFD1802E0000000025640000D092D18BBE
:103D8000D0B1D0BED18020D0BFD180D0BED0B3D1F1
:103D9000802E20005025303264204E2530326420A1
:103DA00056256400D092D18BD0BFD0BED0BBD0BD41
:103DB0002E200000D0A3D0B4D0B0D0BBD0B8D182D8
:103DC000D18C20E28496204E3A000000D092D18B14
:103DD000D0BFD0BED0BBD0BD2E20E2849620503ABA
:103DE00000000000D0A3D0B4D0B0D0BBD0B8D182F6
:103DF000D18C20E2849620503A00000070B5044631
:103E00000D4634B94D48006808B9002070BD2846F9
:103E1000FCE7012C1BD14A48006818B9002047492B
:103E2000086021E04648006800281DDD0120434964
:103E3000086043480068401E4149086014D10023CF
:103E400040F2FD3202211846FFF748FC0CE0022C3C
:103E50000AD13B480560006818B90020374908605E
:103E600002E001203549086034480068CEE7024688
:103E700062B9012902D1334800787047324800689E
:103E800008B90020F9E72F480078F6E7012A39D170
:103E90002E48006818B900202B4B186023E02B48EF
:103EA0000068002803DC29480068401C1BD1264814
:103EB000006850B926480068401C254B186002284D
:103EC00003DB0120204B18600DE01F48006801282B
:103ED00009D11F480068401E1D4B1860002802DCF5
:103EE0000020194B18601948006800281ADD17488F
:103EF0000068401E154B186014D1124B1870154BFA
:103F000018700FE0022A0DD1124840680F4B18605C
:103F1000104800780B4B187001200B4B18600220E2
:103F20000B4B18600020A8E710B500210120FFF717
:103F30009EFF00210120FFF761FF10BD98020020C5
:103F400094020020840200208C02002088020020BD
:103F5000900200205803002070B505460C46274803
:103F60000068A04209D024B900210220FFF746FFD3
:103F700003E008210220FFF741FF21460020FFF760
:103F80003DFF1E49086008460068002832D00C2C0E
:103F90002AD2DFE804F029060B10151A292929294D
:103FA0001F2417A1284600F05FF822E017A1284639
:103FB00000F05AF81DE018A1284600F055F818E066
:103FC00018A1284600F050F813E019A1284600F087
:103FD0004BF80EE019A1284600F046F809E01BA1B5
:103FE000284600F041F804E01CA1284600F03CF807
:103FF00000BF00BF0148006870BD00009C020020A7
:10400000D09ED188D0B8D0B12E203100D09ED1889A
:10401000D0B8D0B12E203200D09ED188D0B8D0B147
:104020002E203300D09ED188D0B8D0B12E203400BD
:10403000D09ED188D0B8D0B12E203500D09ED18866
:10404000D0B8D0B12E20313000000000D09ED188F1
:10405000D0B8D0B12E20313100000000D09ED188E0
:10406000D0B8D0B12E00000030B503460A4600217A
:10407000002019E0545C802C04DA545C1C54401C71
:10408000491C11E0545CB4F5006F0CDA4C1C145D53
:1040900004F03F05545C05EB8414A4F554741C54DF
:1040A000401C891C00E004E0545C002CE2D1222971
:1040B000E0DC00BF00241C5430BD000010B500211E
:1040C0008B48FFF747F80446012C03D088488068E6
:1040D0000B2867D087480068874908600A21B0FB31
:1040E000F1F1834801618348416883484160804819
:1040F000416180488168804881607D4881617D4858
:10410000C0687D49C8600A21B0FBF1F17848C161FF
:1041100078480069784908610A21B0FBF1F17448D8
:10412000016274484069744948610A21B0FBF1F1A9
:104130006F4841626F4880696F4988610A21B0FB0E
:10414000F1F16B4881626B48C0696B49C8610A2113
:10415000B0FBF1F16648C1626648006A66490862D0
:1041600000EB80004100624801636248406A624996
:10417000486200EB800041005D4841635D48806A11
:104180005D49886200EB80004100594881630B2043
:104190005749886000200860012048600846FFF702
:1041A00098F83FE05248006900EB80004000524917
:1041B00008604F48406948604D48806988604C48B5
:1041C000C06900EB80004000C8604948006A00EB0D
:1041D0008000400008614648406A00EB80004000D3
:1041E00048614348806A00EB800040008861404895
:1041F000C06A00EB80004000C8613D48006B0A21A6
:1042000090FBF1F03C4908623948406B0A2190FB71
:10421000F1F0394948623648806B0A2190FBF1F091
:104220003549886201203249086000204860886072
:1042300010BD10B5044640F2FE31601A8C422AD0FF
:104240000ADCA4F54070F3380DD0062813D00928F5
:1042500029D00A2843D116E04E282CD04F2835D03B
:1042600050283CD137E0002340F2B24204211846E6
:10427000FFF734FA34E0002340F2B242042118463A
:10428000FFF72CFA2CE0002340F2B142042118463B
:10429000FFF724FA24E0002340F2B4420421184638
:1042A000FFF71CFA1CE0002340F2B7420421184635
:1042B000FFF714FA14E01148114908600E4800682D
:1042C0001049086001201049086009E00A480068A8
:1042D0000C49086004E00D480949086000E000BF8F
:1042E00000BF0B4A0B49024800F0B4F810BD0000B3
:1042F000A00200202C030020000300200946000833
:10430000700300203C00002060030020554300089B
:1043100058030020C804002010B5012A05D1931EBF
:104320000A4C63602346186006E0084B586000EBB7
:1043300080035B00054C2360044C21722346DA6045
:1043400010BD034A1070516070470000C80400207F
:104350005803002010B5044640F21C41601A8C42FC
:1043600051D006DCA4F54070FD3807D01E2859D185
:1043700048E0302831D0332854D107E0002340F200
:10438000B14204211846FFF7A9F94CE0274800681C
:1043900018B92748274908601EE02448006801280A
:1043A00003D125482349086016E020480068022808
:1043B00003D122481F4908600EE01C48006803280A
:1043C00003D11F481B49086006E01848006806280A
:1043D00002D11C481749086025E01448006880B9DC
:1043E000002340F2B14204211846FFF777F9124842
:1043F00010490860144800681449086001200B49FE
:10440000086010E000BF12480068012809D10020B0
:104410000F490860002340F2B14204211846FFF71B
:104420005DF900E000BF00BF10BD00006003002088
:104430003342000870030020094600088148000844
:10444000DD4C000819510008000300203C0000204A
:104450006803002010B500F10C03446853F82430C1
:104460000C4C236083680BB900232360094C03685C
:1044700063604368A3600B68E360074B1B682361BC
:10448000064B1B686361CB68A361054B1B68E36146
:1044900010BD0000A8040020640300206003002079
:1044A0006C030020A0F54071FD3938D12D4A116010
:1044B0002D49096819B92D492D4A11602EE02A4964
:1044C0000968012903D12B49294A116026E02649B0
:1044D0000968022903D12849254A11601EE02249B2
:1044E0000968032903D12549214A116016E01E49B4
:1044F0000968042903D122491D4A11600EE01A49B6
:104500000968052903D11F49194A116006E01649B7
:104510000968062902D11C49154A116000E000BF54
:1045200000BF10490968194A1161704710B5044667
:10453000012C04D104210320FFF703FF10BD022C3E
:1045400004D104210220FFF7FCFEF7E705480460D0
:1045500000234FF48A6203211846FFF7BFF800BF1B
:10456000ECE70000640300206003002033420008F1
:10457000700300200946000881480008DD4C00084F
:1045800015510008B554000819510008A80400206E
:1045900070B505460C46E068E0B9207A042805DDD0
:1045A000002211462846FFF7B7FE25E0207A0428AE
:1045B00006D1217A226850190122FFF7ADFE1BE0D7
:1045C000207A042818DA217A226850190022FFF78D
:1045D000A3FE11E0207A042805DD002211462846BA
:1045E000FFF79AFE08E0207A042805DC217A226889
:1045F00050190122FFF790FE206810B1207A401C6C
:104600002072002070BD000010B50446B4F57A7F1A
:104610000AD340F2F130844206D8A4F57A71C8B2C8
:104620008749FFF7B5FF04E140F2FD31601A8C4283
:104630007CD012DC40F2F531A4EB01008C423CD07E
:1046400006DCA4F54070F23810D002286FD11EE0CD
:1046500004283DD00728F9D1B0E001287CD05128AA
:1046600067D0532877D05928F0D1BCE07448C0688F
:1046700060B97348007A052805DA71490122086893
:104680000421FFF749FE01206D49C860D0E06D4864
:104690000068012810D16C49086001216B48FEF7C1
:1046A000D7FD002211461046FFF736FE022065496D
:1046B0000860674867490860BAE0624800680128F6
:1046C00005D1002060490860634862490860AFE096
:1046D0005B48006858B961484FF49662042143680A
:1046E0000020FEF7FBFF01205D49086025E05D48E2
:1046F00000680A2190FBF1F05149096808445749C4
:104700004968884216DA574800680A2190FBF1F0A0
:104710004B49096808445449086008464FF49662BA
:10472000042103680020FEF7D9FF06E006E07EE0E2
:1047300012E04BE00120FFF7F9FE79E0002211467C
:104740001046FFF7E9FD002340F2B142042118466C
:10475000FEF7C4FF6CE03DE03948006858B93F48B7
:104760004FF49662042183680020FEF7B7FF012012
:104770003B49086021E03B4800680A2190FBF1F0CA
:104780002F490968401A35498968884212DD354841
:1047900000680A2190FBF1F029490968401A324962
:1047A000086008464FF49662042103680020FEF773
:1047B00095FF02E00120FFF7B9FE39E0002340F247
:1047C000B74204211846FEF789FF31E02748214906
:1047D00008602DE0002211461046FFF79DFD244899
:1047E0001C49086024E0012017490860002017498F
:1047F000086001204860801E184988601D48486094
:1048000012480168FEF7A6FC012802D10520FFF737
:104810008DFE03200B49086017480E4908600023ED
:1048200040F2F33202211846FEF758FF00E000BFC5
:1048300000BF124A02490548FFF70CFE10BD0000F8
:10484000C8040020600300206C030020A0020020A8
:1048500081480008700300202D5700080003002045
:10486000680300203C00002074030020554300082A
:10487000A5440008A0860100DD4C00085803002074
:1048800010B50446B4F57A7F29D340F2F130844262
:1048900025D8A4F57A71C8B2F849FFF779FEF8482F
:1048A000006800281AD1F5484068002808DDF34860
:1048B0004068632804DAF1484068F249086009E07A
:1048C000A4F57A7000220121FFF726FDEB4840682D
:1048D000EC490860EB480168FEF7BAFCF2E12046BB
:1048E00040F2F932A11A944273D009DCA0F2F230FE
:1048F00007286FD2DFE800F0132C70616E8AE200A7
:10490000552968D006DC03297DD004297CD00529EF
:1049100060D16BE1572978D05C29F9D1C8E1D7483B
:10492000C068A0B9D6480068012810D1D348007AE1
:10493000052806DAD149012208680421FFF7ECFCBA
:1049400005E0CE4A117A10680122FFF7E5FCB8E1D4
:10495000CB48006818BB0120C9490860C7484068B7
:1049600000280CDDC5484068632808DAC348406861
:10497000C449086008460168FEF76AFC05E0BF48C4
:10498000406810B10220FFF7D1FD00221146104609
:10499000FFF7C2FC00210846FFF7D3FC0CE0002023
:1049A000B7490860002211461046FFF7B5FC4FF0EA
:1049B000FF310120FFF7C5FC83E1B34800680228FE
:1049C00006D1AF480068012802D1B048B04908605C
:1049D00077E1CCE074E143E1AB480068022811D1F3
:1049E0000120A7490860002211461046FFF794FCF9
:1049F00000210846FFF7A5FC0120A3490860A5484F
:104A0000A34908605DE123E1E3E02DE19C480068F3
:104A100078B99C480068401E9A49086008460068BA
:104A2000012801DA6320086096480168FEF710FC4F
:104A300043E09348006801283FD19048406800282F
:104A40000BDD8E4841688F488068401C814204DA43
:104A50008A4840688B4948601BE08848406878B9BC
:104A600088484068A8B187484068401E854948602A
:104A70000846406801280CDA08468068486008E06B
:104A80000220FFF753FD002211461046FFF744FCB9
:104A900017E17C4841680C3050F821007E490860DD
:104AA00008464FF49662042103680020FEF716FEC4
:104AB000002211461046FFF72FFC02E17048006803
:104AC00078B970480068401C6E4908600846006864
:104AD000632801DD012008606A480168FEF7B8FB21
:104AE00044E067480068012840D1644840680028D5
:104AF0000BDD6248416863488068401C814204DAEB
:104B00005E4840685F4948601CE05C48406880B986
:104B10005C484068B0B15B484068401C59494860F7
:104B200008464068896888420CDD01205549486084
:104B300008E00220FFF7FAFC002211461046FFF7BA
:104B4000EBFBBEE04F4841680C3050F82100524961
:104B5000086008464FF49662042103680020FEF7BF
:104B6000BDFD002211461046FFF7D6FBA9E04348E1
:104B7000006858B949484FF4966204214368002000
:104B8000FEF7ACFD01204649086021E04548006879
:104B90000A2190FBF1F03949096808443F49496806
:104BA000884212DA3F4800680A2190FBF1F033494D
:104BB000096808443849086008464FF496620421A1
:104BC00003680020FEF78AFD02E00120FFF7AEFC3B
:104BD00077E0002211461046FFF79EFB002340F2CB
:104BE000B14204211846FEF779FD6AE023480068C7
:104BF00058B92A484FF49662042183680020FEF7D2
:104C00006DFD01202649086021E0264800680A2140
:104C100090FBF1F019490968401A204989688842D7
:104C200012DA204800680A2190FBF1F01349096864
:104C3000401A1949086008464FF496620421036837
:104C40000020FEF74BFD02E00120FFF76FFC38E08B
:104C5000002340F2B74204211846FEF73FFD30E042
:104C600011480B4908602CE0002211461046FFF75E
:104C700053FB0E480649086023E00000C8040020EA
:104C80006C030020A0020020600300202D570008C4
:104C9000700300200946000878030020000300206C
:104CA000680300203C00002055430008A54400088C
:104CB00000234FF47E7202211846FEF70FFD00E03C
:104CC00000BF00BF024A03490348FFF7C3FB10BD02
:104CD00058030020C8040020A00200202DE9F04164
:104CE0000546B5F57A7F0AD340F2F130854206D801
:104CF000A5F57A71C8B2F749FFF74AFCE2E1B5F5CC
:104D00007F7F78D00ADCA5F2F2300A2874D2DFE87F
:104D100000F019327376737AB3EB73FAB5F58A6FD4
:104D20006BD008DCA5F54070FD3867D001287AD03B
:104D3000512861D184E1A5F58060513874D00328F1
:104D4000F7D1A2E1E348C068A0B9E34800680128B0
:104D500010D1E048007A052806DADE490122086809
:104D60000421FFF7D9FA05E0DA4A117A1068012226
:104D7000FFF7D2FAA5E10020D8494860D8488068FA
:104D8000E0B90620D7490860D748D8490860D84814
:104D900000680A2190FBF1F7012205213846FFF750
:104DA000BBFA4FF0FF310320FFF7CBFA002340F2AC
:104DB000524203211846FEF791FC1BE00520C94929
:104DC0000860CC48C9490860C94800680A2190FBBE
:104DD000F1F7012205213846FFF79EFA4FF0FF3127
:104DE0000320FFF7AEFA002340F252420321184697
:104DF000FEF774FC65E11BE162E125E1DFE0BE48FE
:104E0000BA4908605DE1B348406800280DDDB1484B
:104E10004168B3488068401C814206DAAD4840686A
:104E2000AF4948601DE0D4E017E1AA48406878B96E
:104E3000AB484068A8B1AA484068401EA8494860ED
:104E40000846406801280CDA08468068486008E097
:104E50000220FFF76BFB002211461046FFF75CFAB9
:104E60002FE19F4841680C3050F821600022114624
:104E70001046FFF751FA24E19648406800280BDD00
:104E80009448416896488068401C814204DA914801
:104E90004068934948601CE08E48406880B990485B
:104EA0004068B0B18E484068401C8D494860084653
:104EB0004068896888420CDD01208949486008E023
:104EC0000220FFF733FB002211461046FFF724FAB9
:104ED000F7E0834841680C3050F821600022114609
:104EE0001046FFF719FAECE07A48006860B9834889
:104EF0004FF49662042143680020FEF7EFFB012087
:104F00007F4908601FE01FE0794800680A2190FB94
:104F1000F1F07049096808447849496888420FDA15
:104F2000734800680A2190FBF1F06A490968461845
:104F300033464FF4966204210020FEF7CFFB02E0D7
:104F40000120FFF7F3FABCE065488068012826DD00
:104F50006348446807E062480C30611C50F8211037
:104F600040F82410641C5E488068A042F3DC4FF6D1
:104F7000FF715B4882680C3040F822100C384068A2
:104F800057498968884204D155484068401E5449B1
:104F9000486053488068401E514988600EE0504880
:104FA000806801280ADC4FF6FF704D49C860002078
:104FB000486088604FF6FF714948016181E0002137
:104FC0000846FFF7BEF9002211461046FFF7A4F984
:104FD00077E04048006858B948484FF49662042189
:104FE00083680020FEF77AFB0120454908601EE037
:104FF0003F4800680A2190FBF1F036490968401AE1
:105000003E49896888420FDA394800680A2190FBD6
:10501000F1F030490968461A33464FF4966204218C
:105020000020FEF75BFB02E00120FFF77FFA48E07B
:10503000002340F2B74204211846FEF74FFB40E040
:1050400030482A4908603CE0002211461046FFF72C
:1050500063F92D482549086033E02148FEF739F906
:1050600000210846FFF76DF9002211461046FFF7B0
:1050700053F902201B49086024481C49086018485D
:10508000006808B9FFF71AF81BE015488068002887
:1050900015DD002406E04FF6FF7111480C3040F892
:1050A0002410641C152CF6DB4FF6FF700C49C86009
:1050B0000020486088604FF6FF710948016100E0F8
:1050C00000BF00BF124A03490548FFF7C3F9BDE816
:1050D000F0810000C80400206C030020480000207C
:1050E000A002002060030020195100087003002076
:1050F0003C000020B55400082D5700080003002094
:105100006803002055430008A544000881480008B2
:1051100058030020704700002DE9F0410546B5F521
:105120007A7F15D340F2F130854211D8A5F57A7116
:10513000C8B2D149FFF72CFAD0480068012806D13F
:10514000CD480168CE4842680C3040F822108CE10E
:10515000284640F2FE32A91A95426FD00BDCA0F22D
:10516000F2300C286BD2DFE800F010346A9A6A6AD9
:105170006AA16A6AFDD0A1F150000828F2D2DFE8E6
:1051800000F0F65EF55EF4F35EF2BB48C068F8B975
:10519000BC48006801281BD1B748007A052806DA08
:1051A000B549012208680421FFF7B6F805E0B24AC4
:1051B000117A10680122FFF7AFF8B04800680128A3
:1051C00006D1AD480168AE4842680C3040F8221064
:1051D0004AE1AA480068012836D10020A7490860A2
:1051E000A5480068A8498968884229DDA248006866
:1051F000A5494968884223DA9F480168A048426867
:105200000C3040F82210A1484068401C9F4948607B
:1052100008468068401C8860974801689848426842
:105220009A480C3040F8221000210846FFF789F810
:10523000002211461046FFF76FF82FE06FE012E1F1
:105240000120FFF773F929E08D488068142822DADD
:105250008B484068401C8A49486008468068401C6A
:1052600088608B4800680A2190FBF1F70122052134
:105270003846FFF751F84FF0FF310320FFF761F890
:1052800001207E4908607C4801687D4842680C30F6
:1052900040F8221002E00320FFF748F9E4E07748E5
:1052A000006810B97B487C490860DDE072480068FE
:1052B00058B975484FF49662042143680020FEF700
:1052C0000DFA0120754908601EE0714800680A2146
:1052D00090FBF1F06849096808446B4949688842C5
:1052E0000FDA6B4800680A2190FBF1F06249096807
:1052F000461833464FF4966204210020FEF7EEF97B
:1053000002E00120FFF712F9AEE05C4800680128D6
:1053100004D1002211461046FEF7FEFFA4E05648D5
:10532000006858B958484FF49662042183680020F9
:10533000FEF7D4F901205949086025E05448006877
:105340000A2190FBF1F04C490968401A4E498968DE
:10535000884216DA4E4800680A2190FBF1F046496F
:10536000096805E011E076E04BE023E019E014E085
:10537000461A33464FF4966204210020FEF7AEF938
:1053800002E00120FFF7D2F86EE0002340F2B742BE
:1053900004211846FEF7A2F966E041483E4908603C
:1053A00062E0002211461046FEF7B6FF3D483A493A
:1053B000086059E0324800683449086001203049EB
:1053C0008860324988602E4948603049486000242E
:1053D0000AE04FF6FF712A480C3040F824102B48A1
:1053E0000C3040F82410641C152CF2DB22480168B4
:1053F000234842680C3040F8221001201F49086001
:1054000032E0002408E021480C3050F824101C48F9
:105410000C3040F82410641C19488068401CA042DD
:10542000F1DC00210846FEF78CFF002211461046F1
:10543000FEF772FF00201149086003201A49086036
:105440001A4815490860002340F2514203211846CA
:10545000FEF744F908E0002340F2F3320221184637
:10546000FEF73CF900E000BF00BF114A02490448C2
:10547000FEF7F0FFBDE8F081C80400207C030020A7
:10548000A00200206C030020000300208003002005
:105490003C0000202D570008700300206803002006
:1054A00055430008A544000860030020DD4C0008B7
:1054B0005803002070B50546B5F57A7F11D340F248
:1054C000F13085420DD8A5F57A71C8B28D49FFF744
:1054D0005FF88C4801688C4842680C3040F8221014
:1054E00009E140F2FD31681A8D427CD008DCA5F557
:1054F0004070F23809D0012827D0082874D14AE03A
:10550000532872D05528F9D1D4E07E48C068D8B964
:105510007E480068012817D17A48007A052806DA03
:105520007849012208680421FEF7F6FE05E0754A75
:10553000117A10680122FEF7EFFE72480168724886
:1055400042680C3040F82210D4E06E480068704980
:10555000896888421BDD6B4800686D49496888424C
:1055600015DA68480168684842680C3040F8221033
:105570006448016864484268664840F82210002385
:1055800040F2FD3202211846FEF7A8F802E00120A1
:10559000FEF7CCFFAEE05B4800685D498968884251
:1055A0005CDD584800685A494968884256DA5648CE
:1055B000806814284EDA544884680CE052480C3055
:1055C00050F82420611C40F82120524850F8242033
:1055D00040F82120641E4C484068A042EEDD4A4855
:1055E00041684C4802E03DE083E05AE050F8211069
:1055F000454842680C3040F822100C384068401C86
:1056000041490C3151F820203F484068401C414935
:1056100041F820203C484068401C3B4948603D48D8
:105620000C384068401C3B490C394860364880685B
:10563000401C3549886037480C388068401C354923
:105640000C398860002340F2FD3202211846FEF733
:1056500045F806E00320FEF769FF02E00120FEF7AF
:1056600065FF47E0002407E02A4850F82410264848
:105670000C3040F82410641C23488068401CA04271
:10568000F2DC00210846FEF75CFE002211461046BF
:10569000FEF742FE032020490860204820490860A8
:1056A00028E0002211461046FEF736FE1D481C4930
:1056B00008601FE01448006816490C390860124859
:1056C00080688860104840684860002407E00E4801
:1056D0000C3050F824100F4840F82410641C152C8E
:1056E000F5DB08480168084842680C3040F8221091
:1056F00000E000BF00BF0C4A02490348FEF7AAFEC3
:1057000070BD0000C8040020A00200206C0300202F
:1057100000030020EC03002060030020DD4C0008A3
:1057200070030020A54400085803002010B504466B
:1057300040F2FD31601A8C4275D00ADCA4F540704D
:10574000F23871D002280DD0072844D009286CD136
:1057500031E001283ED01D2856D051287FD0532853
:10576000F5D180E050480068022806D103204E4958
:1057700008604E484E4908601CE04B48006803280A
:105780000AD14A484A490860002340F251420321A5
:105790001846FDF7A3FF0DE043480068062809D12D
:1057A000444843490860002340F25342032118460D
:1057B000FDF794FF71E03C480068032809D13B489D
:1057C0003B490860002340F2544203211846FDF78C
:1057D00085FF62E000BF3848006838498968884220
:1057E0000EDD3548006835494968884208DA324894
:1057F0004FF49662042103680020FDF76FFF02E07A
:105800000120FEF793FE48E02748006818B92C48AD
:105810002749086019E024480068012806D1294872
:105820002349086011E012E021E035E01E480068DD
:10583000022803D124481E49086006E01A4800687F
:10584000032802D119481A49086026E007E000231E
:1058500040F2B14204211846FDF740FF1DE01B480D
:105860001349086019E01A481149086015E00E480C
:10587000006801280FD110480068A0F50D41E039FB
:1058800009D110480A490860002340F2564203211A
:105890001846FDF723FF00E000BF00BF0D4A064990
:1058A0000D48FEF7D7FD10BD60030020DD4C000859
:1058B0007003002019510008C804002000030020D4
:1058C0003342000809460008814800085543000893
:1058D000A544000858030020A002002008B50121BB
:1058E0002820FBF721FD0420ADF8000010208DF8E2
:1058F000030002208DF8020069462248FBF760FA97
:105900002620ADF8000010208DF8030002208DF84D
:10591000020069461C48FBF753FA08BD70B50646FD
:105920000D46144625B1012D0FD0022D27D119E0C7
:10593000012C04D120211448FBF7EDFA04E01CB936
:1059400020211148FBF7E9FA19E0012C04D10221CA
:105950000D48FBF7E0FA04E01CB902210A48FBF706
:10596000DCFA0CE0012C04D104210748FBF7D3FA40
:1059700004E01CB904210448FBF7CFFA00BF00BFC4
:1059800070BD000000140140000C014008B5012169
:105990000C20FBF7C9FC0F20ADF8000010208DF89B
:1059A000030002208DF8020069464148FBF708FA1F
:1059B0000120ADF8000010208DF8030002208DF8C2
:1059C000020069463B48FBF7FBF90F213848FBF71B
:1059D000A4FA01213748FBF79EFA08BD10B504462A
:1059E0003CB900203449087001213248FBF793FA92
:1059F00008E0012C06D101202F49087001212D4813
:105A0000FBF78BFA10BD10B50446052C29D2DFE850
:105A100004F003041C10290000BF0120FFF7DEFF83
:105A20000B212348FBF779FA04212148FBF773FA8D
:105A300020E00120FFF7D2FF0D211D48FBF76DFA92
:105A400002211B48FBF767FA14E00120FFF7C6FFAD
:105A50000E211748FBF761FA01211548FBF75BFAA5
:105A600008E000BF0F211248FBF757FA0020FFF7AC
:105A7000B5FF00BF00BF10BD10B50F48007801286A
:105A800007D100200C49087001210A48FBF743FAAE
:105A900009E00948007830B9012007490870012160
:105AA0000448FBF73AFA10BD03480078704700003D
:105AB00000080140000C01404004002010B50246DF
:105AC0004FF6FF7014E01368DBB283EA2023164C14
:105AD00034F8133083EA002398B21368C3F3072322
